{
  "_format": "hh-sol-artifact-1",
  "contractName": "EternalNFT",
  "sourceName": "contracts/EternalNFT.sol",
  "abi": [
    {
      "inputs": [],
      "stateMutability": "nonpayable",
      "type": "constructor"
    },
    {
      "inputs": [
        {
          "internalType": "address",
          "name": "sender",
          "type": "address"
        },
        {
          "internalType": "uint256",
          "name": "tokenId",
          "type": "uint256"
        },
        {
          "internalType": "address",
          "name": "owner",
          "type": "address"
        }
      ],
      "name": "ERC721IncorrectOwner",
      "type": "error"
    },
    {
      "inputs": [
        {
          "internalType": "address",
          "name": "operator",
          "type": "address"
        },
        {
          "internalType": "uint256",
          "name": "tokenId",
          "type": "uint256"
        }
      ],
      "name": "ERC721InsufficientApproval",
      "type": "error"
    },
    {
      "inputs": [
        {
          "internalType": "address",
          "name": "approver",
          "type": "address"
        }
      ],
      "name": "ERC721InvalidApprover",
      "type": "error"
    },
    {
      "inputs": [
        {
          "internalType": "address",
          "name": "operator",
          "type": "address"
        }
      ],
      "name": "ERC721InvalidOperator",
      "type": "error"
    },
    {
      "inputs": [
        {
          "internalType": "address",
          "name": "owner",
          "type": "address"
        }
      ],
      "name": "ERC721InvalidOwner",
      "type": "error"
    },
    {
      "inputs": [
        {
          "internalType": "address",
          "name": "receiver",
          "type": "address"
        }
      ],
      "name": "ERC721InvalidReceiver",
      "type": "error"
    },
    {
      "inputs": [
        {
          "internalType": "address",
          "name": "sender",
          "type": "address"
        }
      ],
      "name": "ERC721InvalidSender",
      "type": "error"
    },
    {
      "inputs": [
        {
          "internalType": "uint256",
          "name": "tokenId",
          "type": "uint256"
        }
      ],
      "name": "ERC721NonexistentToken",
      "type": "error"
    },
    {
      "anonymous": false,
      "inputs": [
        {
          "indexed": true,
          "internalType": "address",
          "name": "owner",
          "type": "address"
        },
        {
          "indexed": true,
          "internalType": "address",
          "name": "approved",
          "type": "address"
        },
        {
          "indexed": true,
          "internalType": "uint256",
          "name": "tokenId",
          "type": "uint256"
        }
      ],
      "name": "Approval",
      "type": "event"
    },
    {
      "anonymous": false,
      "inputs": [
        {
          "indexed": true,
          "internalType": "address",
          "name": "owner",
          "type": "address"
        },
        {
          "indexed": true,
          "internalType": "address",
          "name": "operator",
          "type": "address"
        },
        {
          "indexed": false,
          "internalType": "bool",
          "name": "approved",
          "type": "bool"
        }
      ],
      "name": "ApprovalForAll",
      "type": "event"
    },
    {
      "anonymous": false,
      "inputs": [
        {
          "indexed": false,
          "internalType": "uint256",
          "name": "_fromTokenId",
          "type": "uint256"
        },
        {
          "indexed": false,
          "internalType": "uint256",
          "name": "_toTokenId",
          "type": "uint256"
        }
      ],
      "name": "BatchMetadataUpdate",
      "type": "event"
    },
    {
      "anonymous": false,
      "inputs": [
        {
          "indexed": false,
          "internalType": "uint256",
          "name": "_tokenId",
          "type": "uint256"
        }
      ],
      "name": "MetadataUpdate",
      "type": "event"
    },
    {
      "anonymous": false,
      "inputs": [
        {
          "indexed": true,
          "internalType": "address",
          "name": "from",
          "type": "address"
        },
        {
          "indexed": true,
          "internalType": "address",
          "name": "to",
          "type": "address"
        },
        {
          "indexed": true,
          "internalType": "uint256",
          "name": "tokenId",
          "type": "uint256"
        }
      ],
      "name": "Transfer",
      "type": "event"
    },
    {
      "inputs": [
        {
          "internalType": "address",
          "name": "to",
          "type": "address"
        },
        {
          "internalType": "uint256",
          "name": "tokenId",
          "type": "uint256"
        }
      ],
      "name": "approve",
      "outputs": [],
      "stateMutability": "nonpayable",
      "type": "function"
    },
    {
      "inputs": [
        {
          "internalType": "address",
          "name": "owner",
          "type": "address"
        }
      ],
      "name": "balanceOf",
      "outputs": [
        {
          "internalType": "uint256",
          "name": "",
          "type": "uint256"
        }
      ],
      "stateMutability": "view",
      "type": "function"
    },
    {
      "inputs": [],
      "name": "collectionName",
      "outputs": [
        {
          "internalType": "string",
          "name": "",
          "type": "string"
        }
      ],
      "stateMutability": "view",
      "type": "function"
    },
    {
      "inputs": [],
      "name": "collectionSymbol",
      "outputs": [
        {
          "internalType": "string",
          "name": "",
          "type": "string"
        }
      ],
      "stateMutability": "view",
      "type": "function"
    },
    {
      "inputs": [],
      "name": "createEternalNFT",
      "outputs": [
        {
          "internalType": "uint256",
          "name": "",
          "type": "uint256"
        }
      ],
      "stateMutability": "nonpayable",
      "type": "function"
    },
    {
      "inputs": [
        {
          "internalType": "uint256",
          "name": "tokenId",
          "type": "uint256"
        }
      ],
      "name": "getApproved",
      "outputs": [
        {
          "internalType": "address",
          "name": "",
          "type": "address"
        }
      ],
      "stateMutability": "view",
      "type": "function"
    },
    {
      "inputs": [
        {
          "internalType": "address",
          "name": "owner",
          "type": "address"
        },
        {
          "internalType": "address",
          "name": "operator",
          "type": "address"
        }
      ],
      "name": "isApprovedForAll",
      "outputs": [
        {
          "internalType": "bool",
          "name": "",
          "type": "bool"
        }
      ],
      "stateMutability": "view",
      "type": "function"
    },
    {
      "inputs": [],
      "name": "name",
      "outputs": [
        {
          "internalType": "string",
          "name": "",
          "type": "string"
        }
      ],
      "stateMutability": "view",
      "type": "function"
    },
    {
      "inputs": [
        {
          "internalType": "uint256",
          "name": "tokenId",
          "type": "uint256"
        }
      ],
      "name": "ownerOf",
      "outputs": [
        {
          "internalType": "address",
          "name": "",
          "type": "address"
        }
      ],
      "stateMutability": "view",
      "type": "function"
    },
    {
      "inputs": [
        {
          "internalType": "uint256",
          "name": "tokenId",
          "type": "uint256"
        }
      ],
      "name": "pickFirstWord",
      "outputs": [
        {
          "internalType": "string",
          "name": "",
          "type": "string"
        }
      ],
      "stateMutability": "view",
      "type": "function"
    },
    {
      "inputs": [
        {
          "internalType": "uint256",
          "name": "tokenId",
          "type": "uint256"
        }
      ],
      "name": "pickSecondWord",
      "outputs": [
        {
          "internalType": "string",
          "name": "",
          "type": "string"
        }
      ],
      "stateMutability": "view",
      "type": "function"
    },
    {
      "inputs": [
        {
          "internalType": "uint256",
          "name": "tokenId",
          "type": "uint256"
        }
      ],
      "name": "pickThirdWord",
      "outputs": [
        {
          "internalType": "string",
          "name": "",
          "type": "string"
        }
      ],
      "stateMutability": "view",
      "type": "function"
    },
    {
      "inputs": [
        {
          "internalType": "address",
          "name": "from",
          "type": "address"
        },
        {
          "internalType": "address",
          "name": "to",
          "type": "address"
        },
        {
          "internalType": "uint256",
          "name": "tokenId",
          "type": "uint256"
        }
      ],
      "name": "safeTransferFrom",
      "outputs": [],
      "stateMutability": "nonpayable",
      "type": "function"
    },
    {
      "inputs": [
        {
          "internalType": "address",
          "name": "from",
          "type": "address"
        },
        {
          "internalType": "address",
          "name": "to",
          "type": "address"
        },
        {
          "internalType": "uint256",
          "name": "tokenId",
          "type": "uint256"
        },
        {
          "internalType": "bytes",
          "name": "data",
          "type": "bytes"
        }
      ],
      "name": "safeTransferFrom",
      "outputs": [],
      "stateMutability": "nonpayable",
      "type": "function"
    },
    {
      "inputs": [
        {
          "internalType": "address",
          "name": "operator",
          "type": "address"
        },
        {
          "internalType": "bool",
          "name": "approved",
          "type": "bool"
        }
      ],
      "name": "setApprovalForAll",
      "outputs": [],
      "stateMutability": "nonpayable",
      "type": "function"
    },
    {
      "inputs": [
        {
          "internalType": "bytes4",
          "name": "interfaceId",
          "type": "bytes4"
        }
      ],
      "name": "supportsInterface",
      "outputs": [
        {
          "internalType": "bool",
          "name": "",
          "type": "bool"
        }
      ],
      "stateMutability": "view",
      "type": "function"
    },
    {
      "inputs": [],
      "name": "symbol",
      "outputs": [
        {
          "internalType": "string",
          "name": "",
          "type": "string"
        }
      ],
      "stateMutability": "view",
      "type": "function"
    },
    {
      "inputs": [
        {
          "internalType": "uint256",
          "name": "tokenId",
          "type": "uint256"
        }
      ],
      "name": "tokenURI",
      "outputs": [
        {
          "internalType": "string",
          "name": "",
          "type": "string"
        }
      ],
      "stateMutability": "view",
      "type": "function"
    },
    {
      "inputs": [
        {
          "internalType": "address",
          "name": "from",
          "type": "address"
        },
        {
          "internalType": "address",
          "name": "to",
          "type": "address"
        },
        {
          "internalType": "uint256",
          "name": "tokenId",
          "type": "uint256"
        }
      ],
      "name": "transferFrom",
      "outputs": [],
      "stateMutability": "nonpayable",
      "type": "function"
    }
  ],
  "bytecode": "0x608060405260405180610160016040528061012f815260200162003c1f61012f9139600a908162000031919062000ae0565b506040518060e001604052806040518060400160405280600481526020017f466972650000000000000000000000000000000000000000000000000000000081525081526020016040518060400160405280600481526020017f57696e640000000000000000000000000000000000000000000000000000000081525081526020016040518060400160405280600481526020017f576176650000000000000000000000000000000000000000000000000000000081525081526020016040518060400160405280600581526020017f456172746800000000000000000000000000000000000000000000000000000081525081526020016040518060400160405280600781526020017f5468756e6465720000000000000000000000000000000000000000000000000081525081526020016040518060400160405280600581526020017f537061636500000000000000000000000000000000000000000000000000000081525081526020016040518060400160405280600481526020017f54696d6500000000000000000000000000000000000000000000000000000000815250815250600b906007620001ea92919062000779565b506040518060e001604052806040518060400160405280600581526020017f53776f726400000000000000000000000000000000000000000000000000000081525081526020016040518060400160405280600581526020017f537065617200000000000000000000000000000000000000000000000000000081525081526020016040518060400160405280600681526020017f536869656c64000000000000000000000000000000000000000000000000000081525081526020016040518060400160405280600681526020017f48616d6d6572000000000000000000000000000000000000000000000000000081525081526020016040518060400160405280600581526020017f536162657200000000000000000000000000000000000000000000000000000081525081526020016040518060400160405280600381526020017f417865000000000000000000000000000000000000000000000000000000000081525081526020016040518060400160405280600381526020017f426f770000000000000000000000000000000000000000000000000000000000815250815250600c906007620003a392919062000779565b506040518060e001604052806040518060400160405280600481526020017f4c6f72640000000000000000000000000000000000000000000000000000000081525081526020016040518060400160405280600481526020017f4b696e670000000000000000000000000000000000000000000000000000000081525081526020016040518060400160405280600781526020017f456d7065726f720000000000000000000000000000000000000000000000000081525081526020016040518060400160405280600981526020017f56656e657261626c65000000000000000000000000000000000000000000000081525081526020016040518060400160405280600881526020017f416e636573746f7200000000000000000000000000000000000000000000000081525081526020016040518060400160405280600581526020017f5361696e7400000000000000000000000000000000000000000000000000000081525081526020016040518060400160405280600381526020017f476f640000000000000000000000000000000000000000000000000000000000815250815250600d9060076200055c92919062000779565b503480156200056a57600080fd5b506040518060400160405280600a81526020017f457465726e616c4e4654000000000000000000000000000000000000000000008152506040518060400160405280600481526020017f454e4654000000000000000000000000000000000000000000000000000000008152508160009081620005e8919062000ae0565b508060019081620005fa919062000ae0565b5050506200060d6200064560201b60201c565b600890816200061d919062000ae0565b506200062e620006df60201b60201c565b600990816200063e919062000ae0565b5062000bc7565b6060600080546200065690620008cf565b80601f01602080910402602001604051908101604052809291908181526020018280546200068490620008cf565b8015620006d55780601f10620006a957610100808354040283529160200191620006d5565b820191906000526020600020905b815481529060010190602001808311620006b757829003601f168201915b5050505050905090565b606060018054620006f090620008cf565b80601f01602080910402602001604051908101604052809291908181526020018280546200071e90620008cf565b80156200076f5780601f1062000743576101008083540402835291602001916200076f565b820191906000526020600020905b8154815290600101906020018083116200075157829003601f168201915b5050505050905090565b828054828255906000526020600020908101928215620007c6579160200282015b82811115620007c5578251829081620007b4919062000ae0565b50916020019190600101906200079a565b5b509050620007d59190620007d9565b5090565b5b80821115620007fd5760008181620007f3919062000801565b50600101620007da565b5090565b5080546200080f90620008cf565b6000825580601f1062000823575062000844565b601f01602090049060005260206000209081019062000843919062000847565b5b50565b5b808211156200086257600081600090555060010162000848565b5090565b600081519050919050565b7f4e487b7100000000000000000000000000000000000000000000000000000000600052604160045260246000fd5b7f4e487b7100000000000000000000000000000000000000000000000000000000600052602260045260246000fd5b60006002820490506001821680620008e857607f821691505b602082108103620008fe57620008fd620008a0565b5b50919050565b60008190508160005260206000209050919050565b60006020601f8301049050919050565b600082821b905092915050565b600060088302620009687fffffffffffffffffffffffffffffffffffffffffffffffffffffffffffffffff8262000929565b62000974868362000929565b95508019841693508086168417925050509392505050565b6000819050919050565b6000819050919050565b6000620009c1620009bb620009b5846200098c565b62000996565b6200098c565b9050919050565b6000819050919050565b620009dd83620009a0565b620009f5620009ec82620009c8565b84845462000936565b825550505050565b600090565b62000a0c620009fd565b62000a19818484620009d2565b505050565b5b8181101562000a415762000a3560008262000a02565b60018101905062000a1f565b5050565b601f82111562000a905762000a5a8162000904565b62000a658462000919565b8101602085101562000a75578190505b62000a8d62000a848562000919565b83018262000a1e565b50505b505050565b600082821c905092915050565b600062000ab56000198460080262000a95565b1980831691505092915050565b600062000ad0838362000aa2565b9150826002028217905092915050565b62000aeb8262000866565b67ffffffffffffffff81111562000b075762000b0662000871565b5b62000b138254620008cf565b62000b2082828562000a45565b600060209050601f83116001811462000b58576000841562000b43578287015190505b62000b4f858262000ac2565b86555062000bbf565b601f19841662000b688662000904565b60005b8281101562000b925784890151825560018201915060208501945060208101905062000b6b565b8683101562000bb2578489015162000bae601f89168262000aa2565b8355505b6001600288020188555050505b505050505050565b6130488062000bd76000396000f3fe608060405234801561001057600080fd5b50600436106101215760003560e01c80636352211e116100ad578063c630338611610071578063c63033861461031a578063c87b56dd1461034a578063e2d2c3081461037a578063e5326ab1146103aa578063e985e9c5146103c857610121565b80636352211e1461026457806370a082311461029457806395d89b41146102c4578063a22cb465146102e2578063b88d4fde146102fe57610121565b806323b872dd116100f457806323b872dd146101c05780632f39352a146101dc5780633330880e146101fa5780633bad0d361461021857806342842e0e1461024857610121565b806301ffc9a71461012657806306fdde0314610156578063081812fc14610174578063095ea7b3146101a4575b600080fd5b610140600480360381019061013b9190611feb565b6103f8565b60405161014d9190612033565b60405180910390f35b61015e610459565b60405161016b91906120de565b60405180910390f35b61018e60048036038101906101899190612136565b6104eb565b60405161019b91906121a4565b60405180910390f35b6101be60048036038101906101b991906121eb565b610507565b005b6101da60048036038101906101d5919061222b565b61051d565b005b6101e461061f565b6040516101f191906120de565b60405180910390f35b6102026106ad565b60405161020f919061228d565b60405180910390f35b610232600480360381019061022d9190612136565b6107c5565b60405161023f91906120de565b60405180910390f35b610262600480360381019061025d919061222b565b6108bd565b005b61027e60048036038101906102799190612136565b6108dd565b60405161028b91906121a4565b60405180910390f35b6102ae60048036038101906102a991906122a8565b6108ef565b6040516102bb919061228d565b60405180910390f35b6102cc6109a9565b6040516102d991906120de565b60405180910390f35b6102fc60048036038101906102f79190612301565b610a3b565b005b61031860048036038101906103139190612476565b610a51565b005b610334600480360381019061032f9190612136565b610a6e565b60405161034191906120de565b60405180910390f35b610364600480360381019061035f9190612136565b610b66565b60405161037191906120de565b60405180910390f35b610394600480360381019061038f9190612136565b610c79565b6040516103a191906120de565b60405180910390f35b6103b2610d71565b6040516103bf91906120de565b60405180910390f35b6103e260048036038101906103dd91906124f9565b610dff565b6040516103ef9190612033565b60405180910390f35b6000634906490660e01b7bffffffffffffffffffffffffffffffffffffffffffffffffffffffff1916827bffffffffffffffffffffffffffffffffffffffffffffffffffffffff19161480610452575061045182610e93565b5b9050919050565b60606000805461046890612568565b80601f016020809104026020016040519081016040528092919081815260200182805461049490612568565b80156104e15780601f106104b6576101008083540402835291602001916104e1565b820191906000526020600020905b8154815290600101906020018083116104c457829003601f168201915b5050505050905090565b60006104f682610f75565b5061050082610ffd565b9050919050565b610519828261051461103a565b611042565b5050565b600073ffffffffffffffffffffffffffffffffffffffff168273ffffffffffffffffffffffffffffffffffffffff160361058f5760006040517f64a0ae9200000000000000000000000000000000000000000000000000000000815260040161058691906121a4565b60405180910390fd5b60006105a3838361059e61103a565b611054565b90508373ffffffffffffffffffffffffffffffffffffffff168173ffffffffffffffffffffffffffffffffffffffff1614610619578382826040517f64283d7b00000000000000000000000000000000000000000000000000000000815260040161061093929190612599565b60405180910390fd5b50505050565b6009805461062c90612568565b80601f016020809104026020016040519081016040528092919081815260200182805461065890612568565b80156106a55780601f1061067a576101008083540402835291602001916106a5565b820191906000526020600020905b81548152906001019060200180831161068857829003601f168201915b505050505081565b600080600754905060006106c0826107c5565b905060006106cd83610a6e565b905060006106da84610c79565b905060008383836040516020016106f39392919061260c565b60405160208183030381529060405290506000600a85858560405160200161071e9493929190612721565b604051602081830303815290604052905060006107638361073e8461126e565b60405160200161074f9291906128c0565b60405160208183030381529060405261126e565b90506000816040516020016107789190612951565b60405160208183030381529060405290506107933389611405565b61079d8882611423565b6001600760008282546107b091906129a2565b92505081905550879850505050505050505090565b606060006107f96107d58461147f565b6040516020016107e59190612a22565b60405160208183030381529060405261154d565b9050600b805490508161080c9190612a73565b9050600b818154811061082257610821612aa4565b5b90600052602060002001805461083790612568565b80601f016020809104026020016040519081016040528092919081815260200182805461086390612568565b80156108b05780601f10610885576101008083540402835291602001916108b0565b820191906000526020600020905b81548152906001019060200180831161089357829003601f168201915b5050505050915050919050565b6108d883838360405180602001604052806000815250610a51565b505050565b60006108e882610f75565b9050919050565b60008073ffffffffffffffffffffffffffffffffffffffff168273ffffffffffffffffffffffffffffffffffffffff16036109625760006040517f89c62b6400000000000000000000000000000000000000000000000000000000815260040161095991906121a4565b60405180910390fd5b600360008373ffffffffffffffffffffffffffffffffffffffff1673ffffffffffffffffffffffffffffffffffffffff168152602001908152602001600020549050919050565b6060600180546109b890612568565b80601f01602080910402602001604051908101604052809291908181526020018280546109e490612568565b8015610a315780601f10610a0657610100808354040283529160200191610a31565b820191906000526020600020905b815481529060010190602001808311610a1457829003601f168201915b5050505050905090565b610a4d610a4661103a565b8383611580565b5050565b610a5c84848461051d565b610a68848484846116ef565b50505050565b60606000610aa2610a7e8461147f565b604051602001610a8e9190612b1f565b60405160208183030381529060405261154d565b9050600c8054905081610ab59190612a73565b9050600c8181548110610acb57610aca612aa4565b5b906000526020600020018054610ae090612568565b80601f0160208091040260200160405190810160405280929190818152602001828054610b0c90612568565b8015610b595780601f10610b2e57610100808354040283529160200191610b59565b820191906000526020600020905b815481529060010190602001808311610b3c57829003601f168201915b5050505050915050919050565b6060610b7182610f75565b506000600660008481526020019081526020016000208054610b9290612568565b80601f0160208091040260200160405190810160405280929190818152602001828054610bbe90612568565b8015610c0b5780601f10610be057610100808354040283529160200191610c0b565b820191906000526020600020905b815481529060010190602001808311610bee57829003601f168201915b505050505090506000610c1c6118a6565b90506000815103610c31578192505050610c74565b600082511115610c66578082604051602001610c4e929190612b41565b60405160208183030381529060405292505050610c74565b610c6f846118bd565b925050505b919050565b60606000610cad610c898461147f565b604051602001610c999190612bb1565b60405160208183030381529060405261154d565b9050600d8054905081610cc09190612a73565b9050600d8181548110610cd657610cd5612aa4565b5b906000526020600020018054610ceb90612568565b80601f0160208091040260200160405190810160405280929190818152602001828054610d1790612568565b8015610d645780601f10610d3957610100808354040283529160200191610d64565b820191906000526020600020905b815481529060010190602001808311610d4757829003601f168201915b5050505050915050919050565b60088054610d7e90612568565b80601f0160208091040260200160405190810160405280929190818152602001828054610daa90612568565b8015610df75780601f10610dcc57610100808354040283529160200191610df7565b820191906000526020600020905b815481529060010190602001808311610dda57829003601f168201915b505050505081565b6000600560008473ffffffffffffffffffffffffffffffffffffffff1673ffffffffffffffffffffffffffffffffffffffff16815260200190815260200160002060008373ffffffffffffffffffffffffffffffffffffffff1673ffffffffffffffffffffffffffffffffffffffff16815260200190815260200160002060009054906101000a900460ff16905092915050565b60007f80ac58cd000000000000000000000000000000000000000000000000000000007bffffffffffffffffffffffffffffffffffffffffffffffffffffffff1916827bffffffffffffffffffffffffffffffffffffffffffffffffffffffff19161480610f5e57507f5b5e139f000000000000000000000000000000000000000000000000000000007bffffffffffffffffffffffffffffffffffffffffffffffffffffffff1916827bffffffffffffffffffffffffffffffffffffffffffffffffffffffff1916145b80610f6e5750610f6d82611926565b5b9050919050565b600080610f8183611990565b9050600073ffffffffffffffffffffffffffffffffffffffff168173ffffffffffffffffffffffffffffffffffffffff1603610ff457826040517f7e273289000000000000000000000000000000000000000000000000000000008152600401610feb919061228d565b60405180910390fd5b80915050919050565b60006004600083815260200190815260200160002060009054906101000a900473ffffffffffffffffffffffffffffffffffffffff169050919050565b600033905090565b61104f83838360016119cd565b505050565b60008061106084611990565b9050600073ffffffffffffffffffffffffffffffffffffffff168373ffffffffffffffffffffffffffffffffffffffff16146110a2576110a1818486611b92565b5b600073ffffffffffffffffffffffffffffffffffffffff168173ffffffffffffffffffffffffffffffffffffffff1614611133576110e46000856000806119cd565b6001600360008373ffffffffffffffffffffffffffffffffffffffff1673ffffffffffffffffffffffffffffffffffffffff168152602001908152602001600020600082825403925050819055505b600073ffffffffffffffffffffffffffffffffffffffff168573ffffffffffffffffffffffffffffffffffffffff16146111b6576001600360008773ffffffffffffffffffffffffffffffffffffffff1673ffffffffffffffffffffffffffffffffffffffff168152602001908152602001600020600082825401925050819055505b846002600086815260200190815260200160002060006101000a81548173ffffffffffffffffffffffffffffffffffffffff021916908373ffffffffffffffffffffffffffffffffffffffff160217905550838573ffffffffffffffffffffffffffffffffffffffff168273ffffffffffffffffffffffffffffffffffffffff167fddf252ad1be2c89b69c2b068fc378daa952ba7f163c4a11628f55a4df523b3ef60405160405180910390a4809150509392505050565b6060600082519050600081036112965760405180602001604052806000815250915050611400565b600060036002836112a791906129a2565b6112b19190612bd3565b60046112bd9190612c04565b905060006020826112ce91906129a2565b67ffffffffffffffff8111156112e7576112e661234b565b5b6040519080825280601f01601f1916602001820160405280156113195781602001600182028036833780820191505090505b5090506000604051806060016040528060408152602001612fd3604091399050600181016020830160005b868110156113bd5760038101905062ffffff818a015116603f8160121c168401518060081b905060ff603f83600c1c1686015116810190508060081b905060ff603f8360061c1686015116810190508060081b905060ff603f831686015116810190508060e01b90508084526004840193505050611344565b5060038606600181146113d757600281146113e7576113f2565b613d3d60f01b60028303526113f2565b603d60f81b60018303525b508484525050819450505050505b919050565b61141f828260405180602001604052806000815250611c56565b5050565b806006600084815260200190815260200160002090816114439190612ddd565b507ff8e1a15aba9398e019f0b49df1a4fde98ee17ae345cb5f6b5e2c27f5033e8ce782604051611473919061228d565b60405180910390a15050565b60606000600161148e84611c72565b01905060008167ffffffffffffffff8111156114ad576114ac61234b565b5b6040519080825280601f01601f1916602001820160405280156114df5781602001600182028036833780820191505090505b509050600082602001820190505b600115611542578080600190039150507f3031323334353637383961626364656600000000000000000000000000000000600a86061a8153600a858161153657611535612a44565b5b049450600085036114ed575b819350505050919050565b6000816040516020016115609190612eaf565b6040516020818303038152906040528051906020012060001c9050919050565b600073ffffffffffffffffffffffffffffffffffffffff168273ffffffffffffffffffffffffffffffffffffffff16036115f157816040517f5b08ba180000000000000000000000000000000000000000000000000000000081526004016115e891906121a4565b60405180910390fd5b80600560008573ffffffffffffffffffffffffffffffffffffffff1673ffffffffffffffffffffffffffffffffffffffff16815260200190815260200160002060008473ffffffffffffffffffffffffffffffffffffffff1673ffffffffffffffffffffffffffffffffffffffff16815260200190815260200160002060006101000a81548160ff0219169083151502179055508173ffffffffffffffffffffffffffffffffffffffff168373ffffffffffffffffffffffffffffffffffffffff167f17307eab39ab6107e8899845ad3d59bd9653f200f220920489ca2b5937696c31836040516116e29190612033565b60405180910390a3505050565b60008373ffffffffffffffffffffffffffffffffffffffff163b11156118a0578273ffffffffffffffffffffffffffffffffffffffff1663150b7a0261173361103a565b8685856040518563ffffffff1660e01b81526004016117559493929190612f1b565b6020604051808303816000875af192505050801561179157506040513d601f19601f8201168201806040525081019061178e9190612f7c565b60015b611815573d80600081146117c1576040519150601f19603f3d011682016040523d82523d6000602084013e6117c6565b606091505b50600081510361180d57836040517f64a0ae9200000000000000000000000000000000000000000000000000000000815260040161180491906121a4565b60405180910390fd5b805181602001fd5b63150b7a0260e01b7bffffffffffffffffffffffffffffffffffffffffffffffffffffffff1916817bffffffffffffffffffffffffffffffffffffffffffffffffffffffff19161461189e57836040517f64a0ae9200000000000000000000000000000000000000000000000000000000815260040161189591906121a4565b60405180910390fd5b505b50505050565b606060405180602001604052806000815250905090565b60606118c882610f75565b5060006118d36118a6565b905060008151116118f3576040518060200160405280600081525061191e565b806118fd8461147f565b60405160200161190e929190612b41565b6040516020818303038152906040525b915050919050565b60007f01ffc9a7000000000000000000000000000000000000000000000000000000007bffffffffffffffffffffffffffffffffffffffffffffffffffffffff1916827bffffffffffffffffffffffffffffffffffffffffffffffffffffffff1916149050919050565b60006002600083815260200190815260200160002060009054906101000a900473ffffffffffffffffffffffffffffffffffffffff169050919050565b8080611a065750600073ffffffffffffffffffffffffffffffffffffffff168273ffffffffffffffffffffffffffffffffffffffff1614155b15611b3a576000611a1684610f75565b9050600073ffffffffffffffffffffffffffffffffffffffff168373ffffffffffffffffffffffffffffffffffffffff1614158015611a8157508273ffffffffffffffffffffffffffffffffffffffff168173ffffffffffffffffffffffffffffffffffffffff1614155b8015611a945750611a928184610dff565b155b15611ad657826040517fa9fbf51f000000000000000000000000000000000000000000000000000000008152600401611acd91906121a4565b60405180910390fd5b8115611b3857838573ffffffffffffffffffffffffffffffffffffffff168273ffffffffffffffffffffffffffffffffffffffff167f8c5be1e5ebec7d5bd14f71427d1e84f3dd0314c0f7b2291e5b200ac8c7c3b92560405160405180910390a45b505b836004600085815260200190815260200160002060006101000a81548173ffffffffffffffffffffffffffffffffffffffff021916908373ffffffffffffffffffffffffffffffffffffffff16021790555050505050565b611b9d838383611dc5565b611c5157600073ffffffffffffffffffffffffffffffffffffffff168373ffffffffffffffffffffffffffffffffffffffff1603611c1257806040517f7e273289000000000000000000000000000000000000000000000000000000008152600401611c09919061228d565b60405180910390fd5b81816040517f177e802f000000000000000000000000000000000000000000000000000000008152600401611c48929190612fa9565b60405180910390fd5b505050565b611c608383611e86565b611c6d60008484846116ef565b505050565b600080600090507a184f03e93ff9f4daa797ed6e38ed64bf6a1f0100000000000000008310611cd0577a184f03e93ff9f4daa797ed6e38ed64bf6a1f0100000000000000008381611cc657611cc5612a44565b5b0492506040810190505b6d04ee2d6d415b85acef81000000008310611d0d576d04ee2d6d415b85acef81000000008381611d0357611d02612a44565b5b0492506020810190505b662386f26fc100008310611d3c57662386f26fc100008381611d3257611d31612a44565b5b0492506010810190505b6305f5e1008310611d65576305f5e1008381611d5b57611d5a612a44565b5b0492506008810190505b6127108310611d8a576127108381611d8057611d7f612a44565b5b0492506004810190505b60648310611dad5760648381611da357611da2612a44565b5b0492506002810190505b600a8310611dbc576001810190505b80915050919050565b60008073ffffffffffffffffffffffffffffffffffffffff168373ffffffffffffffffffffffffffffffffffffffff1614158015611e7d57508273ffffffffffffffffffffffffffffffffffffffff168473ffffffffffffffffffffffffffffffffffffffff161480611e3e5750611e3d8484610dff565b5b80611e7c57508273ffffffffffffffffffffffffffffffffffffffff16611e6483610ffd565b73ffffffffffffffffffffffffffffffffffffffff16145b5b90509392505050565b600073ffffffffffffffffffffffffffffffffffffffff168273ffffffffffffffffffffffffffffffffffffffff1603611ef85760006040517f64a0ae92000000000000000000000000000000000000000000000000000000008152600401611eef91906121a4565b60405180910390fd5b6000611f0683836000611054565b9050600073ffffffffffffffffffffffffffffffffffffffff168173ffffffffffffffffffffffffffffffffffffffff1614611f7a5760006040517f73c6ac6e000000000000000000000000000000000000000000000000000000008152600401611f7191906121a4565b60405180910390fd5b505050565b6000604051905090565b600080fd5b600080fd5b60007fffffffff0000000000000000000000000000000000000000000000000000000082169050919050565b611fc881611f93565b8114611fd357600080fd5b50565b600081359050611fe581611fbf565b92915050565b60006020828403121561200157612000611f89565b5b600061200f84828501611fd6565b91505092915050565b60008115159050919050565b61202d81612018565b82525050565b60006020820190506120486000830184612024565b92915050565b600081519050919050565b600082825260208201905092915050565b60005b8381101561208857808201518184015260208101905061206d565b60008484015250505050565b6000601f19601f8301169050919050565b60006120b08261204e565b6120ba8185612059565b93506120ca81856020860161206a565b6120d381612094565b840191505092915050565b600060208201905081810360008301526120f881846120a5565b905092915050565b6000819050919050565b61211381612100565b811461211e57600080fd5b50565b6000813590506121308161210a565b92915050565b60006020828403121561214c5761214b611f89565b5b600061215a84828501612121565b91505092915050565b600073ffffffffffffffffffffffffffffffffffffffff82169050919050565b600061218e82612163565b9050919050565b61219e81612183565b82525050565b60006020820190506121b96000830184612195565b92915050565b6121c881612183565b81146121d357600080fd5b50565b6000813590506121e5816121bf565b92915050565b6000806040838503121561220257612201611f89565b5b6000612210858286016121d6565b925050602061222185828601612121565b9150509250929050565b60008060006060848603121561224457612243611f89565b5b6000612252868287016121d6565b9350506020612263868287016121d6565b925050604061227486828701612121565b9150509250925092565b61228781612100565b82525050565b60006020820190506122a2600083018461227e565b92915050565b6000602082840312156122be576122bd611f89565b5b60006122cc848285016121d6565b91505092915050565b6122de81612018565b81146122e957600080fd5b50565b6000813590506122fb816122d5565b92915050565b6000806040838503121561231857612317611f89565b5b6000612326858286016121d6565b9250506020612337858286016122ec565b9150509250929050565b600080fd5b600080fd5b7f4e487b7100000000000000000000000000000000000000000000000000000000600052604160045260246000fd5b61238382612094565b810181811067ffffffffffffffff821117156123a2576123a161234b565b5b80604052505050565b60006123b5611f7f565b90506123c1828261237a565b919050565b600067ffffffffffffffff8211156123e1576123e061234b565b5b6123ea82612094565b9050602081019050919050565b82818337600083830152505050565b6000612419612414846123c6565b6123ab565b90508281526020810184848401111561243557612434612346565b5b6124408482856123f7565b509392505050565b600082601f83011261245d5761245c612341565b5b813561246d848260208601612406565b91505092915050565b600080600080608085870312156124905761248f611f89565b5b600061249e878288016121d6565b94505060206124af878288016121d6565b93505060406124c087828801612121565b925050606085013567ffffffffffffffff8111156124e1576124e0611f8e565b5b6124ed87828801612448565b91505092959194509250565b600080604083850312156125105761250f611f89565b5b600061251e858286016121d6565b925050602061252f858286016121d6565b9150509250929050565b7f4e487b7100000000000000000000000000000000000000000000000000000000600052602260045260246000fd5b6000600282049050600182168061258057607f821691505b60208210810361259357612592612539565b5b50919050565b60006060820190506125ae6000830186612195565b6125bb602083018561227e565b6125c86040830184612195565b949350505050565b600081905092915050565b60006125e68261204e565b6125f081856125d0565b935061260081856020860161206a565b80840191505092915050565b600061261882866125db565b915061262482856125db565b915061263082846125db565b9150819050949350505050565b60008190508160005260206000209050919050565b6000815461265f81612568565b61266981866125d0565b945060018216600081146126845760018114612699576126cc565b60ff19831686528115158202860193506126cc565b6126a28561263d565b60005b838110156126c4578154818901526001820191506020810190506126a5565b838801955050505b50505092915050565b7f3c2f746578743e3c2f7376673e00000000000000000000000000000000000000600082015250565b600061270b600d836125d0565b9150612716826126d5565b600d82019050919050565b600061272d8287612652565b915061273982866125db565b915061274582856125db565b915061275182846125db565b915061275c826126fe565b915081905095945050505050565b7f7b226e616d65223a202200000000000000000000000000000000000000000000600082015250565b60006127a0600a836125d0565b91506127ab8261276a565b600a82019050919050565b7f222c20226465736372697074696f6e223a20224120686967686c79206163636c60008201527f61696d656420636f6c6c656374696f6e20457465726e616c2057617272696f7260208201527f73222c2022696d616765223a2022646174613a696d6167652f7376672b786d6c60408201527f3b6261736536342c000000000000000000000000000000000000000000000000606082015250565b600061285e6068836125d0565b9150612869826127b6565b606882019050919050565b7f227d000000000000000000000000000000000000000000000000000000000000600082015250565b60006128aa6002836125d0565b91506128b582612874565b600282019050919050565b60006128cb82612793565b91506128d782856125db565b91506128e282612851565b91506128ee82846125db565b91506128f98261289d565b91508190509392505050565b7f646174613a6170706c69636174696f6e2f6a736f6e3b6261736536342c000000600082015250565b600061293b601d836125d0565b915061294682612905565b601d82019050919050565b600061295c8261292e565b915061296882846125db565b915081905092915050565b7f4e487b7100000000000000000000000000000000000000000000000000000000600052601160045260246000fd5b60006129ad82612100565b91506129b883612100565b92508282019050808211156129d0576129cf612973565b5b92915050565b7f656c656d656e7400000000000000000000000000000000000000000000000000600082015250565b6000612a0c6007836125d0565b9150612a17826129d6565b600782019050919050565b6000612a2d826129ff565b9150612a3982846125db565b915081905092915050565b7f4e487b7100000000000000000000000000000000000000000000000000000000600052601260045260246000fd5b6000612a7e82612100565b9150612a8983612100565b925082612a9957612a98612a44565b5b828206905092915050565b7f4e487b7100000000000000000000000000000000000000000000000000000000600052603260045260246000fd5b7f776561706f6e0000000000000000000000000000000000000000000000000000600082015250565b6000612b096006836125d0565b9150612b1482612ad3565b600682019050919050565b6000612b2a82612afc565b9150612b3682846125db565b915081905092915050565b6000612b4d82856125db565b9150612b5982846125db565b91508190509392505050565b7f72616e6b00000000000000000000000000000000000000000000000000000000600082015250565b6000612b9b6004836125d0565b9150612ba682612b65565b600482019050919050565b6000612bbc82612b8e565b9150612bc882846125db565b915081905092915050565b6000612bde82612100565b9150612be983612100565b925082612bf957612bf8612a44565b5b828204905092915050565b6000612c0f82612100565b9150612c1a83612100565b9250828202612c2881612100565b91508282048414831517612c3f57612c3e612973565b5b5092915050565b60006020601f8301049050919050565b600082821b905092915050565b600060088302612c937fffffffffffffffffffffffffffffffffffffffffffffffffffffffffffffffff82612c56565b612c9d8683612c56565b95508019841693508086168417925050509392505050565b6000819050919050565b6000612cda612cd5612cd084612100565b612cb5565b612100565b9050919050565b6000819050919050565b612cf483612cbf565b612d08612d0082612ce1565b848454612c63565b825550505050565b600090565b612d1d612d10565b612d28818484612ceb565b505050565b5b81811015612d4c57612d41600082612d15565b600181019050612d2e565b5050565b601f821115612d9157612d628161263d565b612d6b84612c46565b81016020851015612d7a578190505b612d8e612d8685612c46565b830182612d2d565b50505b505050565b600082821c905092915050565b6000612db460001984600802612d96565b1980831691505092915050565b6000612dcd8383612da3565b9150826002028217905092915050565b612de68261204e565b67ffffffffffffffff811115612dff57612dfe61234b565b5b612e098254612568565b612e14828285612d50565b600060209050601f831160018114612e475760008415612e35578287015190505b612e3f8582612dc1565b865550612ea7565b601f198416612e558661263d565b60005b82811015612e7d57848901518255600182019150602085019450602081019050612e58565b86831015612e9a5784890151612e96601f891682612da3565b8355505b6001600288020188555050505b505050505050565b6000612ebb82846125db565b915081905092915050565b600081519050919050565b600082825260208201905092915050565b6000612eed82612ec6565b612ef78185612ed1565b9350612f0781856020860161206a565b612f1081612094565b840191505092915050565b6000608082019050612f306000830187612195565b612f3d6020830186612195565b612f4a604083018561227e565b8181036060830152612f5c8184612ee2565b905095945050505050565b600081519050612f7681611fbf565b92915050565b600060208284031215612f9257612f91611f89565b5b6000612fa084828501612f67565b91505092915050565b6000604082019050612fbe6000830185612195565b612fcb602083018461227e565b939250505056fe4142434445464748494a4b4c4d4e4f505152535455565758595a6162636465666768696a6b6c6d6e6f707172737475767778797a303132333435363738392b2fa26469706673582212207fcd0aeba3eb5a54a1ee8864f56e811724ef8b21c76e1f895168ff01444a4b1764736f6c634300081800333c73766720786d6c6e733d27687474703a2f2f7777772e77332e6f72672f323030302f73766727207072657365727665417370656374526174696f3d27784d696e594d696e206d656574272076696577426f783d273020302033353020333530273e3c7374796c653e2e62617365207b2066696c6c3a2077686974653b20666f6e742d66616d696c793a2073657269663b20666f6e742d73697a653a20323470783b207d3c2f7374796c653e3c726563742077696474683d273130302527206865696768743d2731303025272066696c6c3d27626c61636b27202f3e3c7465787420783d273530252720793d273530252720636c6173733d27626173652720646f6d696e616e742d626173656c696e653d276d6964646c652720746578742d616e63686f723d276d6964646c65273e",
  "linkReferences": {},
  "deployedLinkReferences": {}
}